:400000000010002011000000691000006910000008B501F02BF80000F8B572B680220021D2004A4801F05DFF80224948D200002101F057FF0022141C4649FF2557580C3115
:400040003E1C081C6300AE433D4001336419CB186100013141188B4206D0581E00781D78801905700233F6E704320C2AE4D1C022394B92051A60EE22384B12021A609923F6
:400080008021374A1B041360364A890311608021354A09061360354A3C201360344A354C1160354A02211360A822344B12061A60334A13780B43334913700B7883432838C1
:4000C00003430B701621137804300B4313702E4A2E4B1A609F222E4B1A6080222D4BD2001A6097222C4B1A602C4B173A1A602C4A2C4B1A60E0222C4B1A602C4A2C4B1A6046
:4001000080222368D2021343236001F0C5FB2268284B294913402360284A294B1A601023284A1360284A13608222284B12061A600023274A23601160264A13608222264B69
:4001400052001A60254B0C321A60F8BD00300F4000400F40001F0000080001400C00014000500F4004500F4010500F4020500F4028500F4000010B4030500F4034500F40AE
:4001800000700F4001700F407648920008000440000104400801044018010440000204402449D8000802044000030440800D490008030440FFFFFBFF1700008006000080DB
:4001C00004010B40200202402402024008010B40000002400C020B40800010408800104010B5064C2378002B07D1054B002B02D0044800E000BF0123237010BDE0000020DB
:4002000000000000F41E000008B5084B002B03D00748084900E000BF07480368002B00D108BD064B002BFBD09847F9E700000000F41E0000E4000020C800002000000000E0
:40024000F8B53E4C23781B2B0DD00023022223710133E3702033A2706370A2716371063B237000F0E7FEA37861781B02344E5B189AB232802379E1781B025B1831499BB20F
:400280000B80A17960790902012409182E4802250180042008271021D31ADA17D20ED3182A4A5B1113802A4A1378A3432B438343BB438B4330310B433F310B401370537814
:4002C0006F398343BB438B435370224A103113788B43137000F0A0FF00F06EFF01F0B2FB01F022F800F02EFF01F028FC01F0FEFB308800F0E7FF0020011C01F04FFA291C7D
:40030000002001F05FFB211C002001F061FA381C01F092FA291C201C01F040FA8021201CC90101F04FFB211C201C01F051FA0220FF3001F067FA01F0FDF9F8BD2501002010
:400340003E0100204A0100204E010020360100205401002023010020F8B52B4C2B4B22881A422FD02A490B780133DBB20B70022B0BD9012223789806C00F824320205201CF
:4003800083431343237000230B702378214D224F224E9B060AD500F09BFF3B883188C01A0523594301F0ECFB062309E000F090FF3B883188C01A0523594301F0E1FB072368
:4003C000181A28800122164D164E6B78134012D0337800209B183370637893439218934363702B78063293432B7001F069F8002001F05AF800E033703378022B03D90122A1
:400400006B7893436B70F8BD540100201018000059010020380100204A01002036010020230100202101002070B5002000F098FF00F00CFEFFF704FF00F08AFD62B601F07C
:4004400087F98020000101F011FA01F073F900F093FFC043C0B200F083FF00F039FF604B604E18803378604D012B17D960236C781C4013D110222B7813432B705B4A5C4B53
:4004800010881B88181A5B4B198801F009FC011CFA2001F005FC584B3470187000F09AFE564C40222378002803D19343C03A134302E013437F221340237023789B070ED572
:4004C00000F046FF01280AD12378DB0907D04C4A13780133DBB2082B00D908231370494E3378C72B0CD9002000F04EFD012000F04BFD022000F048FD00F092F8002333706D
:4005000004266B7833421CD02378334219D03E4B1A883E4B110AD2B21971DA70344A1288110AD2B299705A70304A1288110AD2B299715A711B221A7000F07CFD6B78B34312
:400540006B70334E3378632B21D900232A7833700D331A420FD06D780B3B1D400BD12D4B187800F015FBFF2000F07AFF281C00F05FFF281C09E0002000F00AFB002000F031
:400580006FFFFF2000F054FFFF2000F05DFF3378042B02D9FF2000F063FF3378272B02D9002000F0F5FA3378272B05D9FF2000F03FFFFF2000F048FF174B184A198891424D
:4005C00007D900221A802378103213432370FFF7C3FEF92322781340237001F00FFA2EE72E01002030010020540100204E0100203E010020360100201E010020230100207A
:400600005A0100203A0100204A01002025010020340100203801002044010020CF0700002023F7B5B34DB44E2978B44C194019D00422337813420CD0B14B1888B14B188044
:4006400008202378034204D083431343033A13432370042372781A4200D07AE2B2781A4200D076E204203378034221D02388A64A1A40022A0CD100290AD1237861789343C4
:40068000034323702B7811431E32134361702B7022889E4B1A40012A0AD120202978014206D1237801439343082213432370297073785B0721D50D2322781340012B1CD190
:4006C0002B789B0619D48E4B8E4F1A88904B39881B88D318994206DB00F0FAFD8C4B1B88C01A388000E03A80388800F0EBFD6378DA0602D4042213436370B3785B071ED506
:400700000D2322781340012B19D1824B7D4F1A887F4B39881B88D31A994206DC00F0D8FD7B4B1B88C018388000E03A80388800F0C9FD63781A0702D4042213436370042060
:400740007278024212D00E212378194002290DD101273B4367788B430F43034306318B4323702B7818310B4367702B700423B178194213D00E202378184002280ED101272E
:400780003B43677883430743023003430430834323702B781830034367702B70574F8B072ED501213B780B422AD010202A7802422ED0594B82439C461B782A705B18614627
:4007C000DBB20B70042B23D90122134220D1514B4C491A884E4B08881B880191D31A984207DC00F075FD4A4B1B88C018019B188001E0019B1A80019B188800F063FD07E052
:40080000930705D410233A78134001D1424A137073789B0727D501213B780B4223D010202A78024228D03C4F82433B782A705B18DBB23B70042B1FD90B421DD1304B314FDB
:400840001A88334B39881B88D318994206DB00F03FFD2F4B1B88C01A388000E03A80388800F030FD08E0B3789B0705D410233A78134001D1284A13701022204F3B781342C5
:4008800050D033781B074DD510232A781A4252D0214B21491B780133DBB20B7010218A432A701E4A12789A4245D800F011FD184B1B88C01800F006FD0023174A137000F0E8
:4008C00007FD144B1A88904235D302213B78101C0B433B7000F0F6FC02217A783B780A437A70012293430F32934300223B700C4B1A8020E02301002056010020540100203F
:400900004A0100204E0100200E1800001D180000360100203E0100205B0100201E0100204C010020022372781A4204D1B278134001D18B4A13700C238A4F3A781A4249D08E
:4009400029781433194045D1874803780133DBB2062B01D8037040E0042501702A4215D001231A433A7000F0B3FC804B1B88C01A00F0A8FC00F0ACFC7D4B1A88904205D836
:400980003B78101CAB433B7000F09CFC08253B782B4222D000F09CFC744B1B88C01800F091FC00F095FC734B1B88984215D3181C00F088FC02223B78AB4313433B706E4BEE
:4009C0001B88002B09D07B7813437B7000236A4A138002E00022644B1A70674B1B88002B10D105253B781D40012D0BD108229343063A13433B705F4B188800F063FC3B7843
:400A0000AB433B705C4B1B88272B0CD90A223B781A40022A07D19343033213433B70554B188800F04FFC60237A781A4235D072785C3B1A4202D1B2781A422ED0E723202183
:400A40006278134022788B438A432270402293433C3A134363704749484B18880B88203B984204DB031C20330B80414B18800C88231ADA0609D0424A134004D52022013B60
:400A8000524213430133E31A0B800B881B1ADA17D20ED318354A5B1113807B785B062CD533785B0729D500F019FC082816D900F015FC344B984211D800F010FC2F4C4528E3
:400AC00003D800F00BFC083802E000F007FC203800F0F8FB00F002FC20800EE000F0FEFB00280AD000F0FAFB082806D8264800F0E9FB00F0F3FB214B18807B789B061ED5CF
:400B000033785B071BD500F0E9FB402808D900F0E5FB1C4B984203D800F0E0FB203808E000F0DCFB20280AD900F0D8FB402806D8144800F0C7FB00F0D1FB0E4B1880337843
:400B40001B070BD53B78DB0708D500220F4B1A7004E00A4B1A88064B1A8083E5F7BDC0465B0100205401002048010020360100204E0100203E0100204C0100204A010020BC
:400B80001F00008021020000010200003001002008B5072867D800F0E9FF040611161E2C3D51FF2000E0002000F0EEFBFF2000F0F7FBFF2000F000FCFF2016E0002000F0EA
:400BC000E3FB0020F3E7002000F0DEFB002000F0E7FB0020EEE7002000F0D6FB002000F0DFFB002000F0E8FB002000F0F1FBFF200CE0002000F0C8FB002000F0D1FB0020B9
:400C000000F0DAFB002000F0E3FB002000F0ECFBFF200FE0002000F0B7FB002000F0C0FB002000F0C9FB002000F0D2FB002000F0DBFB002000F0E4FBFF2012E0002000F0C8
:400C4000A3FB002000F0ACFB002000F0B5FB002000F0BEFB002000F0C7FB002000F0D0FB002000F0D9FB08BDF8B5022000F0BAFA00F0F2FA0022504B504C1A8063789B0781
:400C800004D508214E4A13780B43137022884D4B1A420ED100F01CFB4B4B1B88C01A4B4B19880523594300F06BFF0723181A484B18804848484B0278002A06D01A88023258
:400CC00092B2282A0AD9282208E01A88012A01D9013A1A801A88012A01D800221A803F4A13780133DBB213703B2B43D9042534490B782B430B703A493A4B0D78AD0705D564
:400D00002578ED0702D51D78013500E000251D70354B1F882C4B1B88BB4213D34B789B0710D5102365789C461D420BD12F4E338801339BB23380092B04D963462B436370EC
:400D40000A2333802A4B1B88BB4211D88B789B070ED50826617831420AD1244D2B8801339BB22B80092B03D90A23314361702B80002313706378DA060BD5194A5278920734
:400D800007D44022191C114003D1184D13432980637063781A070BD5114A9278920707D42022191C114003D1104D13432980637000230370F8BDC0463201002054010020CC
:400DC00023010020101800004A01002036010020380100205A0100204C0100201F01002056010020300100204E010020520100203E01002038B52024012000F0A3FA0B4B06
:400E0000197821420CD00A480A4D0288013292B2AA4201D8028003E00022A1430280197002211A780A431A7038BDC0462301002050010020ED020000F8B5012000F064FEB2
:400E40003A4A138801331380394A138801331380384A137801331370374A138801339BB213802C22FF32934201D900F0EDF9334A334D1378013313702B781B0755D5314C04
:400E800063789B0751D501276B783B424DD12E4E3388DA193280227851060DD5191CC220313989B2FF30814206D8C23800F008FB63781F4367700EE0D2090CD0DE22363B97
:400EC0009BB25200934206D8FF2000F0EDFA0122637813436370F4233288FF339A4224D9402123780B4205D0802252421343DBB28B4302E07F2213400B432370FC236278F2
:400F000000271340082263702B78381C93432B70378000F0D5FA381C00F0C6FA0B4B22781F80520701D528221A80F8BD44010020460100203A010020320100203401002032
:400F40002301002054010020420100204C01002070B501260225042408200A490B784A78B343AB43A34303430B708B78B243B343AA43AB43A243A343024303434A708B702E
:400F800070BDC04656010020F8B5041E012C09D0002804D0022808D100F07EFA04E000F06BFA01E000F070FA071C2048035DD9079A07D20FC90F5D071E079446C9B2ED0FD8
:400FC000F60F1B4A002F16D1155DD61C0135EDB215553755042D27D96546012D24D0012903D18B4301310B4303E001210B43F2310B40035516E0D71C395D0131C9B2395525
:401000000027175504290FD9012E0DD00421012D03D18B4349180B4302E00B43FC210B400355033205231355F8BDC04656010020FC00002008B503480349082200F04CFAA1
:4010400008BDC04625010020F81E00000023044A0449D25CD2B2CA540133082BF7D17047F81E000025010020FEE7000070B51049104B01394A1C15D000221E685C689D68C5
:40108000A018AA4203D0B058A0500432F8E7021CDC68151AA54202D0002520C2F9E710330139E7E700F0EEFEFFF7BEF9FEE7C04601000000701F000008B500239A000B495E
:4010C000032B01D80A4989580A4801338150302BF4D1FEF7A1FF0022074B01211A608022D20513680B43136008BDC046691000000000000000000020C00000200122064B2C
:401100001A608022054B12061A600422044B1A60044B013A1A607047040100200000104004001040080F1040044A054B11681B680B43802109010B43136070470400104078
:401140000401002010B5054C2379002B03D1FFF7D5FF01232371FFF7E7FF10BD04010020012208B5094B1A608022094B12061A60B822084B52001A6000F0F8F90221064AC6
:4011800013680B43136000F0F5F908BD0C010020000010400800104028001040044A054B11681B680B43802109010B4313607047080010400C01002010B5054C2379002B96
:4011C00003D1FFF7CDFF01232371FFF7E7FF10BD0C010020024B1868C003C00F7047C0460C001040014B18607047C0462000104008B5FFF739FD08BD10B5041C00F0B6F930
:40120000C021044AA40113688B432343136000F0B1F910BD18E400E010B58024064B64041C60064B064AA03300201A60FFF7E4FF044B1C6010BDC04680E100E000000020F1
:40124000F111000000E100E08022024B52041A607047C04600E100E08022024B52041A607047C04680E100E0842204210D4BD2041A601A680A4300211A600B4A11601A688C
:401280001A600C22094B1A60094B0B3A1A60094B30321A60FA22084B92001A60074A084B1A607047400105404801054064010540780105406801054054010540210200003E
:4012C0004C010540014B80B2186070474C010540014B186880B270474C010540014B186880B270474C01054038B50D1C041CAC4000F03CF9024B1C6000F03CF938BDC0465F
:401300000800054010B5022400F030F9054A13682343136000F02EF9201C1821FFF7E4FF10BDC0460000054010B5054C2378002B03D1FFF799FF01232370FFF7E3FF10BDA2
:4013400014010020014B18607047C04670010540024B18684007C00F7047C046040004404023044980010A689A43D2B2034013430B60704700020440024B18684006C00F32
:401380007047C0460002044008230449C0000A689A43D2B2034013430B607047000004401023044900010A689A43D2B2034013430B607047000004402023044940010A688A
:4013C0009A43D2B2034013430B607047000004404023044980010A689A43D2B2034013430B607047000004407F23044AC00111680B401843C0B210607047C04600000440D7
:40140000012304490A689A43D2B2034013430B607047C046000204400223044940000A689A43D2B2034013430B6070470002044008230449C0000A689A43D2B20340134337
:401440000B607047000204401023044900010A689A43D2B2034013430B607047000204400423044980000A689A43D2B2034013430B60704700020440024B18688006C00FC5
:401480007047C04604030440024B18684006C00F7047C04604030440024B18680006C00F7047C04604030440012304490A689A43D2B2034013430B607047C0460000044047
:4014C0000223044940000A689A43D2B2034013430B60704700000440F0B51D4B8D18A5B001249D4230D803900020071C8D048C0B6D0EE4016419E40104AE02920191361B6C
:40150000029B9F4205D3041E012C1DD9012464421AE00028F7D1231C8033019AA24207D8029A974204D2039AD25D0137325501E02278325501349C42EFD1281C04A900F07F
:401540001FF80135803EDBE7201C25B0F0BDC046FF3F0000000000000230800804D0C0460138FDD1C046C046C0467047EFF3108072B6704780F310887047C046C046C04613
:40158000F0B50024CDB0089409947F2800D9A5E0A14200D1A2E00AAD03908022281C00F097FC231C211C221C019498002858002802D01218014301930133202BF5D1002AEC
:4015C00005D1002900D08CE000910B1C01E00023009302937F23484F484C2AAE80222CA8291C2A972B9300F073FC2660444B454E336022680693120F059700230A2A02D04A
:4016000022680F3313400893089F002F71D1FFF7ADFF3D4A3D4B116809971960089B04900792002B13D13A4A03992A922A9A09040A432A922AAA2260364A32602268120FED
:401640000A2A03D02D4B1A680F2313400893089F002F37D1009B002B34D0281C391C802200F03FFC019B029A0AA99B005A50059B2AAD2A937F232CA880226B6000F028FCE0
:40168000069B2560336023681B0F0A2B03D01B4B1F680F231F400897089B002B12D11E4A03992A922A9A080410431C4A2A90256032602268120F0A2A03D0104B1A680F230B
:4016C00013400893099B002B04D1104A079912680A6009930498FFF74DFF0AE00423089307E0019B9B00E958EA5001230291009370E708984DB0F0BDB6D7000008000040FB
:40170000040000800400004008010B4018010020B6D8000005000080B6D90000060000808021034A090613680B4313607047C04604010B4008B5FFF719FFC021034A0902E2
:4017400013680B431360FFF715FF08BD00010B4010B58024FFF70AFF0749084B0A68E4011A4022430A600A6813408022120213430B60FFF7FFFE10BD00010B40FF3FFFFF03
:40178000022800D901BE044BC0001B680130C340181C01231840704710020B4038B5041C0D1C022800D901BE201CFFF7E9FF00280AD10321081CE400A0402940A140034A25
:4017C000136883431943116038BDC0460C020B4038B5041C0D1C012800D901BE201CFFF7CFFF00280AD1E40002340121A540A1402C1C034A13688B431C43146038BDC046DF
:401800000C020B4010B5041CFFF78AFF094B1A6822431A60E20702D51A689207FCD5E20502D51A689205FCD5E20302D51A689203FCD510BD10020B40094A10B51168136808
:4018400012685C0A4B082343520C1343DB0705D4044A054B11680B401843106010BDC04610020B400C020B40F7F7FFFF0349044A0B681040184308607047C04610020B4084
:401880000808080008B5034B1B7A5843FFF764FE08BDC046CC000020F0B5C31E87B002932D2B65D8344B1B78984204D8334B1D78334BEDB21EE0334B1B78984204D8324BA5
:4018C0001D78324BEDB215E0314B1B78984204D8304B1D78304BEDB20CE0304B1B78984204D82F4B1D782F4BEDB203E02E4B1D782E4BEDB21C782E4E029B0390F35CE4B24D
:401900000193FFF733FE019B04900596294F2F2B05D9039B2A2B02D919263E6008E03F233E681E40019BB34205D2224B019A1A600520FFF711FE1D4A039B944663441B784B
:401940001D4ADBB213601D4B05201D601C4B1C60FFF798FF019BB34206D9059B029A05209B5C3B60FFF7F8FD0498FFF703FE00E001BE07B0F0BDC046C0F1FF0FC1F1FF0F1D
:40198000C2F1FF0FC3F1FF0FC4F1FF0FC5F1FF0FC6F1FF0FC7F1FF0FC8F1FF0FC9F1FF0FCAF1FF0FCBF1FF0FCCF1FF0FCDF1FF0F1C1F00002CFF0B4028FF0B401CFF0B4050
:4019C00020FF0B4038B5051C0C1C012800D901BEC920FFF757FF201C064A2D01AA40A84005490B68934303430B604320FFF74AFF38BDC046FFFF000008020B4008B5FFF7DA
:401A0000B5FD0421034A13688B43136030BFFFF7B1FD08BD10ED00E008B5FFF7EBF908BD10B5041CFFF7A2FD0449054A0B68A403134023430B60FFF79DFD10BD10E400E0B0
:401A4000FF3FFFFF10B58024064BA4021C60064B064A08330120DA67FFF7E2FF044B1C6010BDC04680E100E000000020191A000000E100E08022084B92041A600C22074BC1
:401A80001A60074B0B3A1A60064B31321A600022054B1A607047C046000105402401054038010540140105400801054038B50D1C041CAC40FFF75AFD024B1C60FFF75AFD69
:401AC00038BDC0460800054010B50124FFF74EFD054A136823431360FFF74CFD201C1821FFF7E4FF10BDC0460000054010B5054C2378002B03D1FFF7BDFF01232370FFF71C
:401B0000E3FF10BD1C010020014B18607047C0463001054008B5FFF78FF908BD10B5041CFFF724FDC021044AA40113688B4323431360FFF71FFD10BD10E400E010B58024B4
:401B4000064B64021C60064B064A04330220DA67FFF7E4FF044B1C6010BDC04680E100E000000020151B000000E100E002B4714649084900095C49008E4402BC7047C0462C
:401B8000002243088B4274D303098B425FD3030A8B4244D3030B8B4228D3030C8B420DD3FF22090212BA030C8B4202D31212090265D0030B8B4219D300E0090AC30B8B42B4
:401BC00001D3CB03C01A5241830B8B4201D38B03C01A5241430B8B4201D34B03C01A5241030B8B4201D30B03C01A5241C30A8B4201D3CB02C01A5241830A8B4201D38B0275
:401C0000C01A5241430A8B4201D34B02C01A5241030A8B4201D30B02C01A5241CDD2C3098B4201D3CB01C01A524183098B4201D38B01C01A524143098B4201D34B01C01AE9
:401C4000524103098B4201D30B01C01A5241C3088B4201D3CB00C01A524183088B4201D38B00C01A524143088B4201D34B00C01A5241411A00D20146524110467047FFE745
:401C800001B5002000F0FCF802BDC0460029F7D003B5FFF775FF0EBC4243891A1847C04603460B437FD4002243088B4274D303098B425FD3030A8B4244D3030B8B4228D3FF
:401CC000030C8B420DD3FF22090212BA030C8B4202D31212090265D0030B8B4219D300E0090AC30B8B4201D3CB03C01A5241830B8B4201D38B03C01A5241430B8B4201D39E
:401D00004B03C01A5241030B8B4201D30B03C01A5241C30A8B4201D3CB02C01A5241830A8B4201D38B02C01A5241430A8B4201D34B02C01A5241030A8B4201D30B02C01AB1
:401D40005241CDD2C3098B4201D3CB01C01A524183098B4201D38B01C01A524143098B4201D34B01C01A524103098B4201D30B01C01A5241C3088B4201D3CB00C01A5241F5
:401D800083088B4201D38B00C01A524143088B4201D34B00C01A5241411A00D201465241104670475DE0CA0F00D04942031000D34042534000229C4603098B422DD3030AF1
:401DC0008B4212D3FC22890112BA030A8B420CD3890192118B4208D3890192118B4204D389013AD0921100E08909C3098B4201D3CB01C01A524183098B4201D38B01C01A7C
:401E0000524143098B4201D34B01C01A524103098B4201D30B01C01A5241C3088B4201D3CB00C01A524183088B4201D38B00C01A5241D9D243088B4201D34B00C01A52412C
:401E4000411A00D20146634652415B10104601D34042002B00D54942704763465B1000D3404201B5002000F00BF802BD0029F8D003B5FFF715FF0EBC4243891A1847C0465E
:401E80007047C0460E4B70B500251E1C0D4CE41AA410A54204D0AB00F35898470135F8E700F054F8084B00251E1C084CE41AA410A54204D0AB00F35898470135F8E770BD12
:401EC000581F0000581F0000581F0000601F0000002310B5934203D0CC5CC4540133F9E710BD031C8218934202D019700133FAE77047000000000000000000000000000098
:401F000002420F4003430F4002600F406010D8021C109410C604020111010000030405060708090A0B0C0E0F101112131415161718191B1C1D1E1F202122232526272829C0
:401F40002A2B2E2F3031323334350000F8B5C046F8BC08BC9E46704709020000B9100000F8B5C046F8BC08BC9E467047E1010000801F0000C800002018000000800000001F
:401F8000000000000000E02EC05D00001800000000366E01000000000000000000000000000000000000000000000000000000000000000000000000000000000000000039
:401FC00000000000000000000000000000000000000000000000000000000000000000000000000000000000000000000000000000000000000000000000000000000000E1
:4020000000000000000000000000000000000000000000000000000000000000000000000000000000000000000000000000000000000000000000000000000000000000A0
:402040000000000000000000000000000000000000000000000000000000000000000000000000000000000000000000000000000000000000000000000000000000000060
:402080000000000000000000000000000000000000000000000000000000000000000000000000000000000000000000000000000000000000000000000000000000000020
:0200000490303A
:02000000278651
:0200000490402A
:1000000000000000000000000000000000000000F0
:0200000490501A
:0C0000000002041C1193110104263919A0
:0200000490600A
:0100000001FE
:00000001FF