:400000000010002011000000511000005110000008B501F01FF80000F8B572B680220021D2004A4801F045FF80224948D200002101F03FFF0022141C4649FF2557580C3181
:400040003E1C081C6300AE433D4001336419CB186100013141188B4206D0581E00781D78801905700233F6E704320C2AE4D1C022394B92051A60EE22384B12021A609923F6
:400080008021374A1B041360364A890311608021354A09061360354A3C201360344A354C1160354A02211360A822344B12061A60334A13780B43334913700B7883432838C1
:4000C00003430B701621137804300B4313702E4A2E4B1A609F222E4B1A6080222D4BD2001A6097222C4B1A602C4B173A1A602C4A2C4B1A60E0222C4B1A602C4A2C4B1A6046
:4001000080222368D2021343236001F0ADFB2268284B294913402360284A294B1A601023284A1360284A13608222284B12061A600023274A23601160264A13608222264B81
:4001400052001A60254B0C321A60F8BD00300F4000400F40D01E0000080001400C00014000500F4004500F4010500F4020500F4028500F4000010B4030500F4034500F40DF
:4001800000700F4001700F407648920008000440000104400801044018010440000204402449D8000802044000030440800D490008030440FFFFFBFF1700008006000080DB
:4001C00004010B40200202402402024008010B40000002400C020B40800010408800104010B5064C2378002B07D1054B002B02D0044800E000BF0123237010BDE0000020DB
:4002000000000000C41E000008B5084B002B03D00748084900E000BF07480368002B00D108BD064B002BFBD09847F9E700000000C41E0000E4000020C80000200000000040
:40024000F8B53C4C23781B2B0DD00023022223710133E3702033A2706370A2716371063B237000F0DBFEA37861781B025B189AB2314B02251A802379E1781B025B182F4963
:400280009BB20B80A17960790902012409182C4808260180042110204027D31ADA17D20ED318284A5B111380274A1378A3432B438B43B34383433B433F373B401370537892
:4002C0008B43B34383435370204A1C3113788B43137000F095FF00F063FF01F09BFB01F015F800F023FF01F011FC01F0E7FB0020011C01F03BFA291C002001F04BFB211CA4
:40030000002001F04DFA301C01F07EFA291C201C01F02CFA201C0E4901F03CFB211C201C01F03EFA0220FF3001F054FA01F0EAF9F8BDC046250100203A0100204601002094
:400340004A010020320100205001002023010020FFFF0000F8B52B4C2B4B22881A422FD02A490B780133DBB20B70022B0BD9012223789806C00F824320205201834313438B
:40038000237000230B702378214D224F224E9B060AD500F08FFF3B883188C01A0523594301F0D6FB062309E000F084FF3B883188C01A0523594301F0CBFB0723181A2880EE
:4003C0000122164D164E6B78134012D0337800209B183370637893439218934363702B78063293432B7001F055F8002001F046F800E033703378022B03D901226B789343EA
:400400006B70F8BD500100201018000055010020340100204601002032010020230100202101002070B5002000F08CFF00F002FEFFF706FF00F080FD62B601F071F980205D
:40044000000101F0FBF901F05DF95F4E5F4D3378012B17D960236C781C4013D110222B7813432B705A4A5B4B10881B88181A5A4B198801F0FDFB011CFA2001F0F9FB574B1E
:400480003470187000F09AFE554C40222378002803D19343C03A134302E013437F221340237023789B070ED500F044FF01280AD12378DB0907D04B4A13780133DBB2082B48
:4004C00000D908231370484E3378C72B0CD9002000F04EFD012000F04BFD022000F048FD00F090F80023337004266B7833421CD02378334219D03D4B1A883D4B110AD2B25C
:400500001971DA70334A1288110AD2B299705A702F4A1288110AD2B299715A711B221A7000F07CFD6B78B3436B70324E3378632B21D900232A7833700D331A420FD06D7878
:400540000B3B1D400BD12C4B187800F00FFBFF2000F070FF281C00F055FF281C09E0002000F004FB002000F065FFFF2000F04AFFFF2000F053FF3378042B02D9FF2000F0C8
:4005800059FF3378272B02D9002000F0EFFA3378272B05D9FF2000F035FFFF2000F03EFF164B174A1988914207D900221A802378103213432370FFF7CDFEF9232278134046
:4005C000237001F003FA38E72D010020500100204A0100203A010020320100201E01002023010020560100203601002046010020250100203001002034010020400100207E
:40060000CF0700002023F7B5B34DB44E2978B44C194019D00422337813420CD0B14B1888B14B188008202378034204D083431343033A13432370042372781A4200D077E22A
:40064000B2781A4200D073E204203378034221D02388A64A1A40022A0CD100290AD1237861789343034323702B7811431E32134361702B7022889E4B1A40012A0AD1202069
:400680002978014206D1237801439343082213432370297073785B0721D50D2322781340012B1CD12B789B0619D48E4B8E4F1A88904B39881B88D318994206DB00F0FAFD4F
:4006C0008C4B1B88C01A388000E03A80388800F0EBFD6378DA0602D4042213436370B3785B071ED50D2322781340012B19D1824B7D4F1A887F4B39881B88D31A994206DC16
:4007000000F0D8FD7B4B1B88C018388000E03A80388800F0C9FD63781A0702D404221343637004207278024212D00E212378194002290DD101273B4367788B430F4303437F
:4007400006318B4323702B7818310B4367702B700423B178194213D00E202378184002280ED101273B43677883430743023003430430834323702B781830034367702B7040
:40078000574F8B072ED501213B780B422AD010202A7802422ED0594B82439C461B782A705B186146DBB20B70042B23D90122134220D1514B4C491A884E4B08881B8801916F
:4007C000D31A984207DC00F075FD4A4B1B88C018019B188001E0019B1A80019B188800F063FD07E0930705D410233A78134001D1424A137073789B0727D501213B780B42E8
:4008000023D010202A78024228D03C4F82433B782A705B18DBB23B70042B1FD90B421DD1304B314F1A88334B39881B88D318994206DB00F03FFD2F4B1B88C01A388000E02C
:400840003A80388800F030FD08E0B3789B0705D410233A78134001D1284A13701022204F3B78134250D033781B074DD510232A781A4252D0214B21491B780133DBB20B70A4
:4008800010218A432A701E4A12789A4245D800F011FD184B1B88C01800F006FD0023174A137000F007FD144B1A88904235D302213B78101C0B433B7000F0F6FC02217A781E
:4008C0003B780A437A70012293430F32934300223B700C4B1A8020E0230100205201002050010020460100204A0100200E1800001D180000320100203A01002057010020C5
:400900001E01002048010020022372781A4204D1B278134001D1894A13700C23884F3A781A4249D029781433194045D1854803780133DBB2062B01D8037040E00425017066
:400940002A4215D001231A433A7000F0B3FC7E4B1B88C01A00F0A8FC00F0ACFC7B4B1A88904205D83B78101CAB433B7000F09CFC08253B782B4222D000F09CFC724B1B88AC
:40098000C01800F091FC00F095FC714B1B88984215D3181C00F088FC02223B78AB4313433B706C4B1B88002B09D07B7813437B700023684A138002E00022624B1A70654BED
:4009C0001B88002B10D105253B781D40012D0BD108229343063A13433B705C4B188800F063FC3B78AB433B705A4B1B88272B0CD90A223B781A40022A07D1934303321343C4
:400A00003B70534B188800F04FFC60237A781A4232D072785C3B1A4202D1B2781A422BD0E723627840211340202293438B4363702378474993432370474B18880B88203B89
:400A4000984203DB83180B80404B18800C88231ADA0609D0414A134004D52022013B524213430133E31A0B800B881B1ADA17D20ED318354A5B1113807B785B062CD533780E
:400A80005B0729D500F01CFC082816D900F018FC334B984211D800F013FC2F4C452803D800F00EFC083802E000F00AFC203800F0FBFB00F005FC20800EE000F001FC0028C4
:400AC0000AD000F0FDFB082806D8264800F0ECFB00F0F6FB204B18807B789B061ED533785B071BD500F0ECFB402808D900F0E8FB1B4B984203D800F0E3FB203808E000F06D
:400B0000DFFB20280AD900F0DBFB402806D8144800F0CAFB00F0D4FB0D4B188033781B070BD53B78DB0708D500220F4B1A7004E0094B1A88054B1A8086E5F7BD5701002064
:400B40005001002044010020320100204A0100203A01002048010020460100201F00008021020000010200002D01002008B5072867D800F0E3FF040611161E2C3D51FF207E
:400B800000E0002000F0EAFBFF2000F0F3FBFF2000F0FCFBFF2016E0002000F0DFFB0020F3E7002000F0DAFB002000F0E3FB0020EEE7002000F0D2FB002000F0DBFB0020B9
:400BC00000F0E4FB002000F0EDFBFF200CE0002000F0C4FB002000F0CDFB002000F0D6FB002000F0DFFB002000F0E8FBFF200FE0002000F0B3FB002000F0BCFB002000F01B
:400C0000C5FB002000F0CEFB002000F0D7FB002000F0E0FBFF2012E0002000F09FFB002000F0A8FB002000F0B1FB002000F0BAFB002000F0C3FB002000F0CCFB002000F0AA
:400C4000D5FB08BDF8B5022000F0C0FA00F0F8FA0022514B514C1A8063789B0707D508214F4AFF2013780B43137000F06BFB22884C4B1A420ED100F01DFB4B4B1B88C01A0C
:400C80004A4B19880523594300F062FF0723181A474B18804748484B0278002A06D01A88023292B2282A0AD9282208E01A88012A01D9013A1A801A88012A01D800221A8068
:400CC0003E4A13780133DBB213703B2B43D9042533490B782B430B7039493A4B0D78AD0705D52578ED0702D51D78013500E000251D70354B1F882C4B1B88BB4213D34B7844
:400D00009B0710D5102365789C461D420BD12F4E338801339BB23380092B04D963462B4363700A2333802A4B1B88BB4211D88B789B070ED50826617831420AD1234D2B88BA
:400D400001339BB22B80092B03D90A23314361702B80002313706378DA060BD5184A5278920707D44022191C114003D1174D13432980637063781A070BD5114A927892076D
:400D800007D42022191C114003D1104D13432980637000230370F8BD2E01002050010020230100201018000046010020320100203401002056010020480100201F010020E7
:400DC000520100202D0100204A0100204E0100203A01002038B52024012000F0A5FA0B4B197821420CD00A480A4D0288013292B2AA4201D8028003E00022A1430280197011
:400E000002211A780A431A7038BDC046230100204C010020ED020000F8B5012000F05CFE3C4A1388013313803B4A1388013313803A4A137801331370394A138801339BB23F
:400E400013802C22FF32934201D900F0F1F9354A354D1378013313702B781B0758D5334C63789B0754D501276B783B4250D1304E3388DA193280227851060DD5191CC2200C
:400E8000313989B2FF30814206D8C23800F002FB63781F4367700EE0D2090CD0DE22363B9BB25200934206D8FF2000F0E7FA0122637813436370F4233288FF339A4227D964
:400EC000402123780B4205D0802252421343DBB28B4302E07F2213400B432370FC23627800271340082263702B78381C93432B70378000F027FA381C00F0CCFA381C00F048
:400F0000BDFA0C4B22781F80520701D528221A80F8BDC0464001002042010020360100202E0100203001002023010020500100203E0100204801002070B5012602250424C9
:400F400008200A490B784A78B343AB43A34303430B708B78B243B343AA43AB43A243A343024303434A708B7070BDC04652010020F8B5041E012C09D0002804D0022808D1D8
:400F800000F074FA04E000F061FA01E000F066FA071C2048035DD9079A07D20FC90F5D071E079446C9B2ED0FF60F1B4A002F16D1155DD61C0135EDB215553755042D27D994
:400FC0006546012D24D0012903D18B4301310B4303E001210B43F2310B40035516E0D71C395D0131C9B239550027175504290FD9012E0DD00421012D03D18B4349180B43AD
:4010000002E00B43FC210B400355033205231355F8BDC04652010020FC00002008B503480349082200F042FA08BDC04625010020C81E00000023044A0449D25CD2B2CA5482
:401040000133082BF7D17047C81E000025010020FEE7000070B51049104B01394A1C15D000221E685C689D68A018AA4203D0B058A0500432F8E7021CDC68151AA54202D0DC
:40108000002520C2F9E710330139E7E700F0E2FEFFF7C8F9FEE7C04601000000401F000008B500239A000B49032B01D80A4989580A4801338150302BF4D1FEF7ADFF0022E9
:4010C000074B01211A608022D20513680B43136008BDC046511000000000000000000020C00000200122064B1A608022054B12061A600422044B1A60044B013A1A60704705
:40110000040100200000104004001040080F1040044A054B11681B680B43802109010B4313607047040010400401002010B5054C2379002B03D1FFF7D5FF01232371FFF7D2
:40114000E7FF10BD04010020012208B5094B1A608022094B12061A60B822084B52001A6000F0ECF90221064A13680B43136000F0E9F908BD0C010020000010400800104078
:4011800028001040044A054B11681B680B43802109010B4313607047080010400C01002010B5054C2379002B03D1FFF7CDFF01232371FFF7E7FF10BD0C010020024B186859
:4011C000C003C00F7047C0460C001040014B18607047C0462000104008B5FFF733FD08BD10B5041C00F0AAF9C021044AA40113688B432343136000F0A5F910BD18E400E006
:4012000010B58024064B64041C60064B064AA03300201A60FFF7E4FF044B1C6010BDC04680E100E000000020D911000000E100E08022024B52041A607047C04600E100E042
:401240008022024B52041A607047C04680E100E0842204210D4BD2041A601A680A4300211A600B4A11601A681A600C22094B1A60094B0B3A1A60094B30321A60FA22084B64
:4012800092001A60FA22074B1A6070474001054048010540640105407801054068010540540105404C010540014B80B2186070474C010540014B186880B270474C010540A7
:4012C000014B186880B270474C01054038B50D1C041CAC4000F032F9024B1C6000F032F938BDC0460800054010B5022400F026F9054A13682343136000F024F9201C18211F
:40130000FFF7E4FF10BDC0460000054010B5054C2378002B03D1FFF79BFF01232370FFF7E3FF10BD14010020014B18607047C04670010540024B18684007C00F7047C04614
:40134000040004404023044980010A689A43D2B2034013430B6070470002044008230449C0000A689A43D2B2034013430B607047000004401023044900010A689A43D2B2C2
:40138000034013430B607047000004402023044940010A689A43D2B2034013430B607047000004404023044980010A689A43D2B2034013430B607047000004407F23044A98
:4013C000C00111680B401843C0B210607047C04600000440012304490A689A43D2B2034013430B607047C046000204400223044940000A689A43D2B2034013430B6070479F
:401400000002044008230449C0000A689A43D2B2034013430B607047000204401023044900010A689A43D2B2034013430B607047000204400423044980000A689A43D2B23E
:40144000034013430B60704700020440024B18688006C00F7047C04604030440024B18684006C00F7047C04604030440024B18680006C00F7047C04604030440012304493C
:401480000A689A43D2B2034013430B607047C046000004400223044940000A689A43D2B2034013430B60704700000440F0B51D4B8D18A5B001249D4230D803900020071CE7
:4014C0008D048C0B6D0EE4016419E40104AE02920191361B029B9F4205D3041E012C1DD9012464421AE00028F7D1231C8033019AA24207D8029A974204D2039AD25D0137EA
:40150000325501E02278325501349C42EFD1281C04A900F01DF80135803EDBE7201C25B0F0BDC046FF3F00000230800804D0C0460138FDD1C046C046C0467047EFF31080CB
:4015400072B6704780F310887047C046C046C046F0B50024CDB0089409947F2800D9A5E0A14200D1A2E00AAD03908022281C00F097FC231C211C221C0194980028580028BC
:4015800002D01218014301930133202BF5D1002A05D1002900D08CE000910B1C01E00023009302937F23484F484C2AAE80222CA8291C2A972B9300F073FC2660444B454EE3
:4015C000336022680693120F059700230A2A02D022680F3313400893089F002F71D1FFF7ADFF3D4A3D4B116809971960089B04900792002B13D13A4A03992A922A9A0904AE
:401600000A432A922AAA2260364A32602268120F0A2A03D02D4B1A680F2313400893089F002F37D1009B002B34D0281C391C802200F03FFC019B029A0AA99B005A50059B8F
:401640002AAD2A937F232CA880226B6000F028FC069B2560336023681B0F0A2B03D01B4B1F680F231F400897089B002B12D11E4A03992A922A9A080410431C4A2A90256013
:4016800032602268120F0A2A03D0104B1A680F2313400893099B002B04D1104A079912680A6009930498FFF74DFF0AE00423089307E0019B9B00E958EA500123029100935E
:4016C00070E708984DB0F0BDB6D7000008000040040000800400004008010B4018010020B6D8000005000080B6D90000060000808021034A090613680B4313607047C04601
:4017000004010B4008B5FFF719FFC021034A090213680B431360FFF715FF08BD00010B4010B58024FFF70AFF0749084B0A68E4011A4022430A600A681340802212021343A2
:401740000B60FFF7FFFE10BD00010B40FF3FFFFF022800D901BE044BC0001B680130C340181C01231840704710020B4038B5041C0D1C022800D901BE201CFFF7E9FF002830
:401780000AD10321081CE400A0402940A140034A136883431943116038BDC0460C020B4038B5041C0D1C012800D901BE201CFFF7CFFF00280AD1E40002340121A540A1404D
:4017C0002C1C034A13688B431C43146038BDC0460C020B4010B5041CFFF78AFF094B1A6822431A60E20702D51A689207FCD5E20502D51A689205FCD5E20302D51A689203A4
:40180000FCD510BD10020B40094A10B51168136812685C0A4B082343520C1343DB0705D4044A054B11680B401843106010BDC04610020B400C020B40F7F7FFFF0349044A5D
:401840000B681040184308607047C04610020B400808080008B5034B1B7A5843FFF764FE08BDC046CC000020F0B5C31E87B002932D2B65D8344B1B78984204D8334B1D78A4
:40188000334BEDB21EE0334B1B78984204D8324B1D78324BEDB215E0314B1B78984204D8304B1D78304BEDB20CE0304B1B78984204D82F4B1D782F4BEDB203E02E4B1D786B
:4018C0002E4BEDB21C782E4E029B0390F35CE4B20193FFF733FE019B04900596294F2F2B05D9039B2A2B02D919263E6008E03F233E681E40019BB34205D2224B019A1A6092
:401900000520FFF711FE1D4A039B944663441B781D4ADBB213601D4B05201D601C4B1C60FFF798FF019BB34206D9059B029A05209B5C3B60FFF7F8FD0498FFF703FE00E0C2
:4019400001BE07B0F0BDC046C0F1FF0FC1F1FF0FC2F1FF0FC3F1FF0FC4F1FF0FC5F1FF0FC6F1FF0FC7F1FF0FC8F1FF0FC9F1FF0FCAF1FF0FCBF1FF0FCCF1FF0FCDF1FF0F71
:40198000EC1E00002CFF0B4028FF0B401CFF0B4020FF0B4038B5051C0C1C012800D901BEC920FFF757FF201C064A2D01AA40A84005490B68934303430B604320FFF74AFFC3
:4019C00038BDC046FFFF000008020B4008B5FFF7B5FD0421034A13688B43136030BFFFF7B1FD08BD10ED00E008B5FFF7F3F908BD10B5041CFFF7A2FD0449054A0B68A4033D
:401A0000134023430B60FFF79DFD10BD10E400E0FF3FFFFF10B58024064BA4021C60064B064A08330120DA67FFF7E2FF044B1C6010BDC04680E100E000000020E919000023
:401A400000E100E08022084B92041A600C22074B1A60074B0B3A1A60064B31321A600022054B1A607047C046000105402401054038010540140105400801054038B50D1CD2
:401A8000041CAC40FFF75AFD024B1C60FFF75AFD38BDC0460800054010B50124FFF74EFD054A136823431360FFF74CFD201C1821FFF7E4FF10BDC0460000054010B5054CE6
:401AC0002378002B03D1FFF7BDFF01232370FFF7E3FF10BD1C010020014B18607047C0463001054008B5FFF797F908BD10B5041CFFF724FDC021044AA40113688B43234383
:401B00001360FFF71FFD10BD10E400E010B58024064B64021C60064B064A04330220DA67FFF7E4FF044B1C6010BDC04680E100E000000020E51A000000E100E002B47146A3
:401B400049084900095C49008E4402BC7047C046002243088B4274D303098B425FD3030A8B4244D3030B8B4228D3030C8B420DD3FF22090212BA030C8B4202D312120902E9
:401B800065D0030B8B4219D300E0090AC30B8B4201D3CB03C01A5241830B8B4201D38B03C01A5241430B8B4201D34B03C01A5241030B8B4201D30B03C01A5241C30A8B42F4
:401BC00001D3CB02C01A5241830A8B4201D38B02C01A5241430A8B4201D34B02C01A5241030A8B4201D30B02C01A5241CDD2C3098B4201D3CB01C01A524183098B4201D36D
:401C00008B01C01A524143098B4201D34B01C01A524103098B4201D30B01C01A5241C3088B4201D3CB00C01A524183088B4201D38B00C01A524143088B4201D34B00C01A06
:401C40005241411A00D20146524110467047FFE701B5002000F0FCF802BDC0460029F7D003B5FFF775FF0EBC4243891A1847C04603460B437FD4002243088B4274D3030978
:401C80008B425FD3030A8B4244D3030B8B4228D3030C8B420DD3FF22090212BA030C8B4202D31212090265D0030B8B4219D300E0090AC30B8B4201D3CB03C01A5241830BA3
:401CC0008B4201D38B03C01A5241430B8B4201D34B03C01A5241030B8B4201D30B03C01A5241C30A8B4201D3CB02C01A5241830A8B4201D38B02C01A5241430A8B4201D3B6
:401D00004B02C01A5241030A8B4201D30B02C01A5241CDD2C3098B4201D3CB01C01A524183098B4201D38B01C01A524143098B4201D34B01C01A524103098B4201D30B01F7
:401D4000C01A5241C3088B4201D3CB00C01A524183088B4201D38B00C01A524143088B4201D34B00C01A5241411A00D201465241104670475DE0CA0F00D04942031000D31F
:401D80004042534000229C4603098B422DD3030A8B4212D3FC22890112BA030A8B420CD3890192118B4208D3890192118B4204D389013AD0921100E08909C3098B4201D389
:401DC000CB01C01A524183098B4201D38B01C01A524143098B4201D34B01C01A524103098B4201D30B01C01A5241C3088B4201D3CB00C01A524183088B4201D38B00C01A83
:401E00005241D9D243088B4201D34B00C01A5241411A00D20146634652415B10104601D34042002B00D54942704763465B1000D3404201B5002000F00BF802BD0029F8D0D5
:401E400003B5FFF715FF0EBC4243891A1847C0467047C0460E4B70B500251E1C0D4CE41AA410A54204D0AB00F35898470135F8E700F054F8084B00251E1C084CE41AA4100B
:401E8000A54204D0AB00F35898470135F8E770BD281F0000281F0000281F0000301F0000002310B5934203D0CC5CC4540133F9E710BD031C8218934202D019700133FAE77D
:401EC0007047000000000000000000000000000002420F4003430F4002600F406010D8021C109410C604020111010000030405060708090A0B0C0E0F101112131415161755
:401F000018191B1C1D1E1F2021222325262728292A2B2E2F3031323334350000F8B5C046F8BC08BC9E46704709020000A1100000F8B5C046F8BC08BC9E467047E10100008B
:401F4000501F0000C80000201800000078000000000000000000E02EC05D00001800000000366E010000000000000000000000000000000000000000000000000000000092
:401F80000000000000000000000000000000000000000000000000000000000000000000000000000000000000000000000000000000000000000000000000000000000021
:401FC00000000000000000000000000000000000000000000000000000000000000000000000000000000000000000000000000000000000000000000000000000000000E1
:4020000000000000000000000000000000000000000000000000000000000000000000000000000000000000000000000000000000000000000000000000000000000000A0
:402040000000000000000000000000000000000000000000000000000000000000000000000000000000000000000000000000000000000000000000000000000000000060
:0200000490303A
:020000001A8262
:0200000490402A
:1000000000000000000000000000000000000000F0
:0200000490501A
:0C0000000002041C1193110104262C15B1
:0200000490600A
:0100000001FE
:00000001FF